:100000000C9437000C94AC110C943B180C94841B8A
:100010000C94841B0C94F7160C94841B0C940E18EF
:100020000C94841B0C94841B0C942F150C94841B2F
:100030000C94841B0C94841B0C94841B0C94841BC4
:100040000C94841B0C94841B0C9475160C94841BC8
:100050000C94841B0C94DD150C94841B0C94841B51
:100060000C94841B0C94841B0100053F8000112418
:100070001FBECFEFD8E0DEBFCDBFE8E6F0E040E046
:1000800017C0B591A59135912591059107FD0CC03B
:1000900095918591EF01F92FE82F05900D92A21708
:1000A000B307D9F7FE0104C01D92A217B307E1F709
:1000B000ED36F40731F70E941A060C945F00F894AD
:0200C000FFCF70
:1000C200000000000000000000000000000000002E
:1000D200000000000000000000000000000000001E
:1000E200000000000000000000000000000000000E
:1000F20000000000000000000000000080C0F0F8D6
:100102003CF8F0E080000000000000000000000069
:1001120000000000000000000000000000000000DD
:1001220000000000000000000000000000000000CD
:1001320000000000000000000000000000000000BD
:1001420000000000000000000000000000000000AD
:10015200000000000000000000000000000000009D
:10016200000000000000000000000000000000008D
:100172000000000000000080E0F0FC3E1F070300CA
:10018200000001071F3EFCF0E080000000000000BC
:10019200000000000000000000000000000000005D
:1001A200000000000000000000000000000000004D
:1001B200000000000000000000000000000000003D
:1001C200000000000000000000000000000000002D
:1001D200000000000000000000000000000000001D
:1001E200000000000000000000000000000000000D
:1001F200000080E0F0FC3E1F070300000000FEFE4E
:10020200FEFEFE0000000001071F3EFCF0E0800041
:1002120000000000000000000000000000000000DC
:1002220000000000000000000000000000000000CC
:1002320000000000000000000000000000000000BC
:1002420000000000000000000000000000000000AC
:10025200000000000000000000000000000000009C
:100262000000000000000000000000000080E0F03C
:10027200FC3E1F0703000000000000000000FFFF1B
:10028200FFFFFF00000000000000000001071F3E0A
:10029200FCF0E08000000000000000000000000010
:1002A200000000000000000000000000000000004C
:1002B200000000000000000000000000000000003C
:1002C200000000000000000000000000000000002C
:1002D200000000000000000000000000000000001C
:1002E200000000000000000080E0F0FC3E1F07015B
:1002F2000000000000000000000000000000F8F80C
:10030200F8F8F80000000000000000000000000003
:100312000001071F3EFCF0E080000000000000002A
:1003220000000000000000000000000000000000CB
:1003320000000000000000000000000000000000BB
:1003420000000000000000000000000000000000AB
:10035200000000000000000000000000000000009B
:100362000000000060F0FCFEFFE7E1E0E0E0E0E01A
:10037200E0E0E0E0E0E0E0E0E0E0E0E0E0E0E1E179
:10038200E1E1E1E0E0E0E0E0E0E0E0E0E0E0E0E068
:10039200E0E0E0E0E0E0E1E7FFFFFCF06000000009
:1003A200000000000000000000000000000000004B
:1003B200000000000000000000000000000000003B
:1003C200000000000000000808F8F8F808080080A3
:1003D200C0404040C08000C0C040C040C08000C09B
:1003E200C0404040C0800080C0404040C08000C04B
:1003F200C080404040000040404040C0800040F883
:10040200F8404000C0C0000000C0C000C0C0804032
:100412004040000040404040C0800000000000E03A
:10042200F0988898F0E000F8F8000040F8F84040B2
:10043200000040404040C08000F8F800000000008A
:100442000000000000000000000707070000000392
:100452000705050505010007070007000707000F4C
:100462000F0404040703000307050505050100073F
:10047200070000000000020705050507070000034A
:10048200070404000307040404070300070700002D
:10049200000000020705050507070000000000072D
:1004A2000700000007070003070400000307040415
:1004B2000002070505050707000606000000000008
:1004C200000000000000000000000000000000002A
:1004D200000000000000000000000000000000001A
:1004E200000000000000000000000000000000000A
:1004F20000000000000000000000000080C0F0F8D2
:100502003CF8F0E080000000000000000000000065
:1005120000000000000000000000000000000000D9
:1005220000000000000000000000000000000000C9
:1005320000000000000000000000000000000000B9
:1005420000000000000000000000000000000000A9
:100552000000000000000000000000000000000099
:100562000000000000000000000000000000000089
:100572000000000000000080E0F0FC3E1F070300C6
:10058200000001071F3EFCF0E080000000000000B8
:100592000000000000000000000000000000000059
:1005A2000000000000000000000000000000000049
:1005B2000000000000000000000000000000000039
:1005C2000000000000000000000000000000000029
:1005D2000000000000000000000000000000000019
:1005E2000000000000000000000000000000000009
:1005F200000080E0F0FC3E1F070300000000FEFE4A
:10060200FEFEFE0000000001071F3EFCF0E080003D
:1006120000000000000000000000000000000000D8
:1006220000000000000000000000000000000000C8
:1006320000000000000000000000000000000000B8
:1006420000000000000000000000000000000000A8
:100652000000000000000000000000000000000098
:100662000000000000000000000000000080E0F038
:10067200FC3E1F0703000000000000000000FFFF17
:10068200FFFFFF00000000000000000001071F3E06
:10069200FCF0E0800000000000000000000000000C
:1006A2000000000000000000000000000000000048
:1006B2000000000000000000000000000000000038
:1006C2000000000000000000000000000000000028
:1006D2000000000000000000000000000000000018
:1006E200000000000000000080E0F0FC3E1F070157
:1006F2000000000000000000000000000000F8F808
:10070200F8F8F800000000000000000000000000FF
:100712000001071F3EFCF0E0800000000000000026
:1007220000000000000000000000000000000000C7
:1007320000000000000000000000000000000000B7
:1007420000000000000000000000000000000000A7
:100752000000000000000000000000000000000097
:100762000000000060F0FCFEFFE7E1E0E0E0E0E016
:10077200E0E0E0E0E0E0E0E0E0E0E0E0E0E0E1E175
:10078200E1E1E1E0E0E0E0E0E0E0E0E0E0E0E0E064
:10079200E0E0E0E0E0E0E1E7FFFFFCF06000000005
:1007A2000000000000000000000000000000000047
:1007B2000000000000000000000000000000000037
:1007C2000000000000000000000000000000000423
:1007D2000404FCFC0404040080C040404040C0808B
:1007E20000C0C040404040C0800080C04040404007
:1007F200400000004048444844C0800080C040405F
:100802004040C0800000000000FCFC44444444FC22
:10081200B800004040404040C08000CCCC000040C6
:10082200C080000080C04000004040404040C08086
:1008320000FCFC00000000000000000000000000BE
:1008420000000000000000000000000000000000A6
:100852000000070700000000030705050505050164
:10086200000707000000000707000405050505054D
:100872000702000207050505050707000307040430
:10088200040407030000000000070704040404072F
:100892000300020705050505070700070700000416
:1008A2000603010103060400020705050505070703
:1008B200000606000000000000000000000000002A
:1008C2000500000000000500005F000005000700B1
:1008D200070005147F147F1405242A7F2A1205239A
:1008E20013086462053649562050050807030000C4
:1008F20005001C224100050041221C000514083E8F
:1009020008140508083E08080500B0700000050834
:1009120008080808050060600000052010080402AD
:10092200053E5149453E0500427F40000572494956
:100932004946052141494D33051814127F100527F8
:1009420045454539053C4A494931054121110907C7
:1009520005364949493605464949291E050000140C
:10096200000005004034000005081422410005146F
:100972001414141405412214080005020159090631
:10098200053E415D594E057C1211127C057F494995
:100992004936053E41414122057F4141413E057FA5
:1009A20049494949057F09090909053E41415173F0
:1009B200057F0808087F0500417F4100052040416E
:1009C2003F01057F08142241057F40404040057FDA
:1009D200020C027F057F0408107F053E4141413E23
:1009E200057F09090906053E4151215E057F091966
:1009F20029460526494949320501017F0101053F82
:100A02004040403F051F2040201F053F4038403FE7
:100A1200056314081463050304780403056151494E
:100A2200454305007F4141000502040810200500EE
:100A320041417F000504020102040540404040405C
:100A420005070B000000052054547840057F284418
:100A5200443805384444442805384444287F05383E
:100A6200545454180500087E09020518A4A49C7861
:100A7200057F080404780500447D400005204040BD
:100A82003D00057F102844000500417F4000057CA1
:100A920004780478057C0804047805384444443812
:100AA20005FC182424180518242418FC057C0804C5
:100AB20004080548545454240504043F4424053CC6
:100AC2004040207C051C2040201C053C4030403C1E
:100AD200054428102844054C9090907C05446454A9
:100AE2004C4405000836410005000077000005006F
:100AF2004136080005040204080405007F417F0016
:100B02004C415344204361720043002072706D00D7
:100B12002500536F6E61723A2000442E20506E659C
:100B2200753A200020636D004B6D00440052005066
:100B32000054656D7065726174757261206DE17843
:100B4200696D613A2000B04300412074656D7065A3
:100B5200726174757261206DE178696D61207265F0
:100B6200676973747261646120666F69207A657265
:050B7200616461210037
:100B77000000000080C0404E517151515171514EDB
:100B870040C08000000000000000FF070F1E3C78F7
:100B9700F0E0C080383028040001FF00000000802A
:100BA70080FF8080908A868E8183878F9EBCF8F035
:100BB700E0FF8080000F1910101010101010101097
:0C0BC70010101010101010101010190F5A
:100BD3000000000080C0404E517151515171514E7F
:100BE30040C08000000000000000FF070F1E3C789B
:100BF300F0E0C080000000000001FF000000008062
:100C030080FF8080808080808183878F9EBCF8F006
:100C1300E0FF8080000F191010101010101010103A
:0C0C230010101010101010101010190FFD
:050C2F002575003000F6
:100C340084B114B884B1806384B985B1886185B9FD
:100C44008AB11AB88AB180628AB98BB188618BB9CA
:100C540087B117B880E480937C008FEE80937A008C
:100C640010927B0088E380937E0092E09093B00022
:100C740083E08093B10029EF2093B3009093700038
:100C840093E294BD85BD94E49093810090E29093A7
:100C94006F009AE0909369008DBB84E080936800B4
:100CA40080ED80936D00789489B1881F8827881F10
:100CB4008093390589B186FB882780F980933A05AA
:100CC40060E070E080E00E94441BEC0190933005EA
:100CD40080932F0562E070E080E00E94441B8093C3
:100CE4003E05DE0120EA36E841E050E00E94F21AB7
:100CF40060930D0570930E0580930F059093100576
:100D04000E946A1B80E895E20E949D190E94731458
:100D140001E028E045E062EC78E080E00E945C19A4
:100D240080917C008334E1F7809123059091240520
:100D34008337910518F081E080933705809125056C
:100D4400909126058636924018F481E08093380508
:100D540060E070E080E00E94441B60912F05709178
:100D640030058617970721F080E090E00E94651B0C
:100D740064E070E080E00E94101B60913B058617E0
:100D840020F484E090E00E94D81A8091210590918B
:100D940022058333924030F01B9B04C081E0809392
:100DA400360502C01092360580913B05873488F0E1
:100DB40080911B0590911C052091190530911A050D
:100DC400821B930B893E934060F081E0809337054A
:100DD40008C080911B0590911C0590931A0580937F
:100DE400190580912505909126058636924088F450
:100DF40080911B0590911C052091170530911805D1
:100E0400821B930B893E934060F081E08093380508
:100E140008C080911B0590911C0590931805809340
:100E240017058091380581115EC0809137058111C5
:100E34005AC085B1806185B98091310590913205A0
:100E4400459778F180912D0590912E058C32914033
:100E540040F5609127057091280580E090E00E949C
:100E6400BA1623E42F932FE72F931F921F92A12CDE
:100E7400B12C6501E12C10ECF12E0FE714E4A6016E
:100E840095010E9414140F900F900F900F9020E082
:100E940030E040E251E40E94761B0E94DF1768BDF7
:100EA40025C0609127057091280580E090E00E949C
:100EB400BA1623E42F932FE72F931F921F92A12C8E
:100EC400B12C6501E12C10ECF12E0FE714E4A6011E
:100ED40095010E9414140F900F900F900F900E9490
:100EE400DF1768BD03C018BC85B115B86091230530
:100EF4007091240580911F0590912005681779074A
:100F040061F4209125053091260580911D0590916D
:100F14001E052817390709F483C0709320056093D0
:100F24001F05C0912505D0912605D0931E05C093B9
:100F34001D0580E090E00E94BA162B013C0183E479
:100F44008F9388E48F931F921F92A12CB12C65017B
:100F540018EFE12EFF24FA9408E113E42DE33BEFAC
:100F640049EB52E4C301B2010E9414140F900F9094
:100F74000F900F90A60195010E94601B88231CF41A
:100F840010923B051DC083E48F9385E48F931F92D9
:100F94001F92A12CB12C6501E12CF12C09E113E481
:100FA40020E030E04AEB52E4C301B2010E94141481
:100FB4000F900F900F900F900E94DF1760933B05E6
:100FC400BE0180E090E00E94BA1622E42F9328EC40
:100FD4002F931F921F92A12CB12C65011BE7E12EC8
:100FE40014EDF12E06E514E423E333E749E154E478
:100FF4000E9414140F900F900F900F906B017C01BE
:1010040020E030E0A9010E94601B88231CF41092A8
:101014003C0506C0C701B6010E94DF1760933C057A
:10102400C0912B05D0912C058091290590912A051A
:10103400C817D90731F490913E0580913D05981762
:1010440099F1D0932A05C093290560913E056093D8
:101054003D0570E080E090E00E94BC1628ED3FE082
:1010640049E450E40E947A1B6B017C01BE0180E0DC
:1010740090E00E94BA16A70196010E947A1B20E014
:1010840030E040EC50E40E947A1B20E030E44CE174
:1010940056E40E94761B0E94DF177093320560931A
:1010A4003105CB010E940F1140911B0550911C0585
:1010B4009A013695279536952795ABE7B4E10E94BA
:1010C400AD1A9695879564E6689F9001699F300DE7
:1010D40011244217530709F03BCE0E94960A38CEDA
:1010E4002F923F924F926F927F928F929F92AF92E4
:1010F400BF92CF92DF92EF92FF920F931F93CF9301
:10110400DF93CDB7DEB762970FB6F894DEBF0FBE9C
:10111400CDBF6C013A01862E7901FC01108617823D
:10112400848181FFE7C19E012F5F3F4F3D872C875C
:10113400C901A0E8888B998BAA8B9FE3992EF301B0
:10114400849187FC8081882309F4D0C1482D9301C0
:101154002F5F3F4F4F4F853219F03901842E0AC05B
:10116400F901849147FD808192E0690E711C811C14
:10117400853229F4B60190E00E943317E0CFB12CF8
:1011840000E010E01032A0F48B3269F030F48032C9
:1011940059F0833269F410612CC08D3239F08033F8
:1011A40039F4116026C01260146023C0186021C095
:1011B40017FD29C090ED980F9A3078F416FF06C0F9
:1011C400AAE0BA9E900D1124B92E13C0EAE00E9F36
:1011D400900D1124092F10620CC08E3221F416FDDB
:1011E40085C1106406C08C3611F4106802C08836BC
:1011F40051F4F301849187FC8081FFEF6F1A7F0A19
:101204008F0A8111BFCF982F9F7D9554933028F476
:1012140024E0E20EF11C99820FC0833631F083374B
:1012240091F0833509F063C027C0F7018081898379
:1012340097012E5F3F4F7901288839884A88AA246C
:10124400A394B12C17C0A7014D5F5F4F5F874E87F2
:10125400F70120803180428016FF03C04B2D50E0FF
:1012640002C04FEF5FEF842DB1010E94D8195C01D9
:10127400EE84FF841F7718C097012D5F3F4F3F878F
:101284002E87F70120803180428016FF03C04B2D4A
:1012940050E002C04FEF5FEF842DB1010E94D819D6
:1012A4005C011068EE84FF8413FD1DC0802F90E064
:1012B400A816B906C0F4B60180E290E00E94331784
:1012C4000150F4CFF101849147FC8081FFEF2F1A84
:1012D4003F0A4F0AB60190E00E94331701110150F2
:1012E40021E0A21AB108A114B10461F7F5C0843653
:1012F40011F0893671F5F70117FF08C0608171811B
:101304008281938197012C5F3F4F09C06081718175
:10131400072E000C880B990B97012E5F3F4F790124
:101324001F76312E97FF0AC0909580957095619530
:101334007F4F8F4F9F4F312F3068332E2AE030E09C
:10134400AE014F5F5F4F0E94D114482E4C85441A62
:101354004AC0853729F41F7EA12E2AE030E025C03B
:10136400512F597FA52E8F36C1F018F4883579F0A6
:10137400BDC0803719F0883721F0B8C0852F80614F
:10138400A82EA4FE0DC09A2D9460A92E09C014FFA6
:101394000AC0A52FA660AA2E06C028E030E005C02A
:1013A40020E130E002C020E132E0F701A7FE08C0EE
:1013B4006081718182819381A7014C5F5F4F07C077
:1013C4006081718180E090E0A7014E5F5F4F7A01F8
:1013D400AE014F5F5F4F0E94D114482E5C85451AC1
:1013E4008A2D8F77382E36FE0DC0932D9E7FA92E21
:1013F4004B1458F434FE0BC032FC09C0A32DAE7E4E
:10140400AA2E05C0142DA32C03C0142D01C01B2D1E
:10141400A4FE0EC0FE01E40DF11D8081803321F491
:10142400EA2DE97EAE2E08C0A2FE05C01E5F04C0F0
:101434008A2D867809F01F5FA3FC11C0A0FE06C0A8
:10144400101788F4040DB02EB11A0EC0101760F4F2
:10145400B60180E290E00E9433171F5FF7CF1017A8
:1014640018F4011B02C0B42C00E0A4FE10C0B601A5
:1014740080E390E00E943317A2FE17C0A1FC03C0D2
:1014840088E790E002C088E590E0B6010CC08A2DA0
:10149400867859F0A1FE02C08BE201C080E2A7FC6D
:1014A4008DE2B60190E00E9433174B1438F4B60174
:1014B40080E390E00E943317BA94F7CF4A94E1E0B6
:1014C400F0E0EC0FFD1FE40DF11D8081B60190E00A
:1014D4000E9433174110F2CF002309F430CEB60135
:1014E40080E290E00E9433170150F6CFF601878125
:1014F400908502C08FEF9FEF62960FB6F894DEBF1F
:101504000FBECDBFDF91CF911F910F91FF90EF9050
:10151400DF90CF90BF90AF909F908F907F906F900F
:081524004F903F902F900895B5
:10152C00AF92BF92CF92DF92EF92FF920F931F93E5
:10153C00CF9340911B0550911C059A013695279528
:10154C0036952795ABE7B4E10E94AD1A9695879531
:10155C0064E6689F9001699F300D11244217530770
:10156C0011F0C0E001C0C1E08091380581111AC1B1
:10157C0080913705811116C10E946E1B61E081E0DC
:10158C000E94071B62E07BE080E00E947D1964E012
:10159C008BE60E94071B60913B0570E080E090E0B9
:1015AC000E94AA176BE07BE080E00E947D196DE041
:1015BC0081E00E94071B60912B0570912C0580E047
:1015CC0090E00E94AA176DE07BE080E00E947D19FC
:1015DC0060E18BE60E94071B60913C0570E080E0A7
:1015EC0090E00E94AA1762E17BE080E00E947D19E6
:1015FC0069E181E00E94071B64E17BE080E00E94CE
:10160C007D1960912D0570912E0580E090E00E946F
:10161C00AA1765E281E00E94071B6CE17BE080E089
:10162C000E947D1960913E0570E080E090E00E9480
:10163C00AA1766E27BE080E00E947D1963E382E1F9
:10164C000E94071B60912F057091300580E090E09F
:10165C000E94AA176AE27BE080E00E947D1963E396
:10166C0083E70E94071B8091390590E0880F991F32
:10167C0020913A05820F911D8230910519F0039744
:10168C0039F00CC06DE27BE080E00E947D190BC04C
:10169C006FE27BE080E00E947D1905C061E37BE096
:1016AC0080E00E947D190FEF2AE040E36AE081E0C0
:1016BC000E9441122DE34CE360E38AE00E94861500
:1016CC002DE34DE760E38EE60E94861529E14EE797
:1016DC0061E088E60E94861580913605882329F101
:1016EC00CC2351F080913505882319F010923505E3
:1016FC0003C081E08093350561E08DE40E94071BF7
:10170C0080913505882349F001E02DE147E163ED37
:10171C007BE080E00E94320C08C001E02DE147E143
:10172C0067E77BE080E00E94320CEE24EA9401E053
:10173C0023E24CE76BE188E60E947C0F0FEF20E27E
:10174C004EE76EE18CE70E945B1B60913C0570E0FC
:10175C0080E090E00E94BA1622E42F9328EF2F939A
:10176C001F921F920F2EA12CB12CF2EDCF2EF2E472
:10177C00DF2EF02DE12CF12C08EC12E420E030E00F
:10178C00A9010E9414140F900F900F900F900E94BB
:10179C00DF17462F0FEF22E26CE188E60E945B1BFD
:1017AC000E948C1880913805882321F10E946E1BB1
:1017BC0060E080E00E94071B00E020E440E862EC5F
:1017CC0074E080E00E94320C2FEF89E698E1215002
:1017DC0080409040E1F700C000000E949D1A2FEF5E
:1017EC0089E698E1215080409040E1F700C000006C
:1017FC000E948C1880913705882321F10E946E1B62
:10180C0060E080E00E94071B00E020E440E862EC0E
:10181C0070E080E00E94320C2FEF89E698E12150B5
:10182C0080409040E1F700C000000E949D1A2FEF0D
:10183C0089E698E1215080409040E1F700C000001B
:10184C000E948C18CF911F910F91FF90EF90DF9019
:08185C00CF90BF90AF900895FA
:101864002F923F924F925F926F927F928F929F92AC
:10187400AF92BF92CF92DF92EF92FF920F931F939A
:10188400CF93DF93CDB7DEB72A970FB6F894DEBFB8
:101894000FBECDBF3B01882E142FE0E0F1E0208085
:1018A4009180822D840F12F410E81219422F50E017
:1018B4005C834B839A01295F3F4FC90199230CF440
:1018C4000796959587959595879595958795898399
:1018D4009A83592D5695569556955D83850F893073
:1018E40040F0A980BA80A81AB108C50108969A8365
:1018F4008983992D97709A87392C412C74C0632D54
:10190400822D0E94071B212F30E0429EC001439E7E
:10191400900D11246C01C21AD30A512C4BC07C01C6
:10192400EFEFEE1AFE0A482D9301280F391F411DCF
:1019340097FD4A95A42FC901FC018491FA852F2FA4
:1019440030E090E002C0880F991FFA95E2F7B82EB4
:101954004420D9F0D6011196682DA3014C0D5D1DCC
:10196400611DD7FC6A955A01C62EF501A49068E062
:1019740070E0621B730B2A2D30E002C03595279569
:101984006A95E2F7B22EB82A6D01013039F4E0E02D
:10199400F1E0618180810E94CA1AB82AE0E0F1E096
:1019A4006181808191E0980F90834B2D0E94BC1A35
:1019B4005394C701511608F4B2CF809108018823CB
:1019C40041F0E0E0F1E0618180810E94CA1A482F71
:1019D40001C040E0E0E0F1E0618180810E94BC1A36
:1019E400F8E03F0E4394842D90E029813A818217D8
:1019F400930708F484CF3D81432F50E08B819C8171
:101A0400890D911D01979C0112F4295F3F4F359573
:101A1400279535952795359527954217530709F44A
:101A240067C04FE3431508F463C0632D822D0E9401
:101A3400071B512C51E0451A5108149D7001159D46
:101A4400F00C1124B12C31C0E0E0F1E0A180608100
:101A540069836A2D89810E94CA1A67019FEFC91A96
:101A6400D90A482D93012E0D3F1D411DF7FC4A95BF
:101A7400642FA901FA01449128E030E0FA852F1B74
:101A8400310950E002C0559547952A95E2F7482B55
:101A9400013009F4482B89818F5F809300016A2DFE
:101AA40089810E94BC1AB3947601B11668F28091C0
:101AB4000801882399F0813041F4E0E0F1E061818C
:101AC40080810E94CA1A482F0AC0E0E0F1E06181D7
:101AD40080810E94CA1A482F409501C040E0E0E08E
:101AE400F1E06181808191E0980F90830E94BC1A9B
:101AF4000E947E1B692D0E94071B2A960FB6F8943C
:101B0400DEBF0FBECDBFDF91CF911F910F91FF902C
:101B1400EF90DF90CF90BF90AF909F908F907F9089
:0C1B24006F905F904F903F902F900895BD
:101B30004F925F926F927F928F929F92AF92BF92DD
:101B4000CF92DF92EF92FF920F931F93CF93DF9389
:101B5000A0E0B1E05C9011964C90119780521596E0
:101B60009C91159717962C911797929F900111248D
:101B70002F5F3F4F829FA001839F500D112413962A
:101B8000ED91FC9114975A018FEFA81AB80AE40F4F
:101B9000F51F7490842D8770982E642C812C5FC063
:101BA000662D852D0E94071B7501E80CF11C67014D
:101BB00081E0C81AD10810E041C0809103019091E2
:101BC0000401FC01EE0DFF1D2491492D50E030E091
:101BD000092C02C0220F331F0A94E2F7022F88203B
:101BE000A1F0FC01EC0DFD1DE49188E090E0841B68
:101BF000950BF0E002C0F595E7958A95E2F70E2F78
:101C0000022B80910701C80ED11C80910801813000
:101C100039F4E0E0F1E0618180810E94CA1A082B6A
:101C2000C0E0D1E06981888191E0980F9883402FCE
:101C30000E94BC1A8F81E80EF11C1F5F171508F473
:101C4000BCCF80910801811107C0E0E0F1E040E0E5
:101C5000618180810E94BC1A88E0680E8394809123
:101C60000701881608F49CCF242D269526952695E5
:101C700030E08091060190E0840D911D0197AC0148
:101C800012F4495F5F4F5595479555954795559582
:101C900047952417350709F445C08FE3861508F4E6
:101CA00041C0662D852D0E94071BA80CB11C81E048
:101CB000A81AB10800E029C0C0E0D1E0F98018817D
:101CC0006F2D812F0E94CA1AEB81FC81EA0DFB1D4A
:101CD000449128E030E02919310950E002C05595BF
:101CE00047952A95E2F7482B9885913009F4482BBF
:101CF000C0E0D1E081E0810F88836F2D812F0E94A9
:101D0000BC1A8F81A80EB11C0F5F0715A8F2809135
:101D10000801811107C0E0E0F1E040E061818081CD
:101D20000E94BC1A852D870D642D8F5F0E94071BB2
:101D3000DF91CF911F910F91FF90EF90DF90CF90A7
:101D4000BF90AF909F908F907F906F905F904F90DB
:021D50000895F4
:101D5200CF93DF93DC01CB01FA0120E322872187B5
:101D62002087278326832583248323832283218339
:101D72002083BB234CF4B095A095909581959F4FFD
:101D8200AF4FBF4F31E008C030E006C09A5CAA49AD
:101D9200BB4321812F5F218381152AEC92072AE917
:101DA200A2072BE3B20794F706C0915EA54FB54098
:101DB20022812F5F2283811521EE920725EFA20750
:101DC20025E0B20794F707C080589649A849B1099F
:101DD20023812F5F2383803826E9920728E9A2070F
:101DE200B10594F707C080549244AF40B1092481F1
:101DF2002F5F2483803422E492072FE0A207B105EB
:101E020094F707C0805A9648A140B10925812F5FF7
:101E12002583803A26E8920721E0A207B10594F7CC
:101E220007C080519742A109B10926812F5F2683FD
:101E3200803127E29207A105B1059CF707C0885EB1
:101E42009340A109B10927812F5F2783883E23E0B0
:101E52009207A105B1059CF707C084569109A10913
:101E6200B10920852F5F208784369105A105B10530
:101E7200A4F706C00A97A109B10921852F5F21871E
:101E82008A309105A105B105ACF706C00197A109F9
:101E9200B10922852F5F2287181619061A061B061A
:101EA200ACF320E001C02F5FDF01A20FB11D8C91C6
:101EB2008033C9F3332331F02150DF01A20FB11D6A
:101EC2008DE28C934AE0421B30E00DC0832F90E0FC
:101ED200EF01C80FD91F820F911DDF01A80FB91F93
:101EE2008C9188833F5F431788F7E30FF11D1082BF
:061EF200DF91CF9108957D
:101EF8006F927F928F929F92AF92BF92CF92DF9212
:101F0800EF92FF920F931F93CF93DF9388230CF4E4
:101F1800ACC044230CF4A9C0603408F0A6C0203437
:101F280008F0A3C0902E122F842ED62F782E802F43
:101F380090E0880F991F23E030E06901C81AD90A98
:101F4800F42EF01AB72CB00EFB1418F0AF2CCB2DD2
:101F580009C0AB2CCF2D06C04E2D6D2F8C2F0E94A3
:101F68006F17CF5FAC16C0F7FB1418F0AF2CCB2D52
:101F780009C0AB2CCF2D06C04E2D612F8C2F0E948F
:101F88006F17CF5FAC16C0F71919D90D1D1718F0C8
:101F9800212F6D2F02C02D2F612F0E2D472D872D3C
:101FA8000E9448101D1718F0212F6D2F02C02D2FE9
:101FB800612F0E2D482D882D0E944810092DC0E054
:101FC80051C04E2D8D2E801A682D9B2C9C1A892D60
:101FD8000E946F174E2DAD2EAC1A6A2D6B2C601A0D
:101FE800862D0E946F174E2D682D8C2E8F0C882DF4
:101FF8000E946F174E2D6A2DA02EAF0C8A2D0E94BD
:102008006F174E2D702E710E672D892D0E946F1738
:102018004E2D9C2E910E692D862D0E946F174E2DE8
:10202800672D882D0E946F174E2D692D8A2D0E94CD
:102038006F17DD2054F48C2F90E0880F991F880FBC
:10204800991F0696C80ED91E0CC08C2F90E0801BD5
:102058009109880F991F880F991F0A96C80ED91ED3
:102068000150CF5F0C1708F0ACCFDF91CF911F91D3
:102078000F91FF90EF90DF90CF90BF90AF909F901F
:082088008F907F906F90089586
:102090006F927F928F929F92AF92BF92CF92DF9278
:1020A000EF92FF920F931F93CF93DF9388230CF44B
:1020B000A7C044230CF4A4C0603408F0A1C02034AD
:1020C00008F09EC0261B99249394920E481BD1E0E1
:1020D000D40F962F9770162F191BE92CF12C28E09E
:1020E00030E0291B3109E216F3067CF428E030E0E9
:1020F0002E193F094FEF50E06A0102C0D594C794F2
:102100002A95E2F72C2DB92C04C028E0B22EB91A7A
:102110002FEFA82EC22ED12C02C0CC0CDD1C9A951C
:10212000E2F76C2C612F0E94071B812C19C0E0E0A4
:10213000F1E07180C081672D8C2F0E94CA1A0F3F79
:1021400019F4462D482B03C04C2D4095482381E0BF
:102150008C0F80930001672D8C2F0E94BC1A8394F2
:102160008D1628F316C088E0B80E185F612F8A2DEF
:102170000E94071BC0E00BC0E0E0F1E061818081BC
:1021800091E0980F9083402F0E94BC1ACF5FCD172B
:1021900098F38B2D90E09C01285F3F4FE216F306E9
:1021A00014F7B91468F5E81AF90A8FEF90E002C045
:1021B000880F991FEA94E2F7E82EE09468E0610F37
:1021C0008A2D0E94071B10E019C0E0E0F1E0F180C9
:1021D000C0816F2D8C2F0E94CA1A0F3F19F44E2D0B
:1021E000482B03C04E2D4095482381E08C0F8093EF
:1021F00000016F2D8C2F0E94BC1A1F5F1D1728F342
:10220000DF91CF911F910F91FF90EF90DF90CF90D2
:0E221000BF90AF909F908F907F906F90089539
:10221E001F93CF93DF93EC0185B1826085B921E2E4
:10222E002A95F1F7000085B115B831E23A95F1F72C
:10223E00000081E00E94671810E02AC09E01ADECFC
:10224E00BCEC0E94AD1A96958795969587959695B6
:10225E0087959C01220F331F880F991F880F991F96
:10226E00880F991F820F931F9E01281B390BC901DE
:10227E00012E02C0969587950A94E2F780FF04C05E
:10228E0081E00E94671803C080E00E9467181F5FFC
:10229E001430A0F210E034C09E01ADECBCEC0E94F4
:1022AE00AD1AAC0156954795569547955695479557
:1022BE009A010E94AD1A9695879596958795969553
:1022CE0087959C01220F331F880F991F880F991F26
:1022DE00880F991F820F931F9A01281B390BC90172
:1022EE00012E02C0969587950A94E2F780FF04C0EE
:1022FE0081E00E94671803C080E00E9467181F5F8C
:10230E00143050F210E01BC09E013695279536957D
:10231E002795ABE7B4E10E94AD1A96958795012EED
:10232E0002C0969587950A94E2F780FF04C081E07B
:10233E000E94671803C080E00E9467181F5F143068
:0A234E0018F3DF91CF911F9108955D
:102358001F920F920FB60F921124CF92DF92EF9235
:10236800FF922F933F934F935F936F937F938F9336
:102378009F93AF93BF93EF93FF938091330583307F
:1023880009F061C010923305E4E8F0E060817181E2
:102398008091110590911205681B790B80819181BC
:1023A800909312058093110580E090E00E94BA1680
:1023B80020E030E040E450E40E94761B9B01AC0131
:1023C80060EC71EE84E69AE40E94761B0E94DF17A7
:1023D80070932C0560932B0560913E0570E080E0BA
:1023E80090E00E94BC1628ED3FE049E450E40E94CA
:1023F8007A1B20E030E040E450E40E947A1B6B0135
:102408007C0160910D0570910E0580910F059091EA
:1024180010050E94BA16A70196010E94291B0E9466
:10242800DF1760930D0570930E0580930F05909349
:10243800100520EA36E841E050E00E94191930936F
:10244800300520932F05809133058F5F80933305E6
:10245800FF91EF91BF91AF919F918F917F916F9174
:102468005F914F913F912F91FF90EF90DF90CF9028
:0A2478000F900FBE0F901F901895F3
:102482008F929F92AF92BF92CF92DF92EF92FF9282
:102492000F931F93CF93DF93C82FD62F142F882328
:1024A2000CF474C044230CF471C0603408F06EC0A4
:1024B200203408F06BC084130AC0261710F4D22F00
:1024C200262F4C2F6D2F8C2F0E9448105FC0621355
:1024D2000EC0481748F4C42F182F06C0402F6D2F86
:1024E2008C2F0E946F17CF5F1C17C0F74FC02617A3
:1024F20028F4C62ED12CC21AD10804C0C22ED12C67
:10250200C61AD1081C1728F4AC2EB12CA11AB10896
:1025120004C0A12EB12CAC1AB108AC14BD0434F421
:10252200812F122F282F8C2FCD2FD82F1C1730F44C
:102532008D2FD22F282F8C2FC12F182F912E9C1A1E
:10254200D21718F4E22EED1A02C0ED2EE21AF92C7F
:10255200F694D21718F48824839416C088248A9497
:1025620013C0AC14BD0434F4402F6C2F8D2F0E9485
:102572006F1705C0402F6D2F8C2F0E946F17FE180A
:1025820012F4D80DF90CCF5F1C1758F7DF91CF91D9
:102592001F910F91FF90EF90DF90CF90BF90AF907F
:0625A2009F908F90089548
:1025A80010C00E94361B58F00E942F1B40F029F4DF
:1025B8005F3F29F00C944B1B51110C943E1B0C945B
:1025C800811B0E94F71868F39923B1F3552391F3FF
:1025D800951B550BBB27AA2762177307840738F08A
:1025E8009F5F5F4F220F331F441FAA1FA9F335D0E7
:1025F8000E2E3AF0E0E832D091505040E695001C9B
:10260800CAF72BD0FE2F29D0660F771F881FBB1F54
:10261800261737074807AB07B0E809F0BB0B802D32
:10262800BF01FF2793585F4F3AF09E3F510578F05E
:102638000C944B1B0C943E1B5F3FE4F3983ED4F381
:10264800869577956795B795F7959F5FC9F7880F32
:10265800911D9695879597F90895E1E0660F771F84
:10266800881FBB1F621773078407BA0720F0621B15
:0E267800730B840BBA0BEE1F88F7E0950895E4
:102686000FC00E942F1B38F00E94361B20F09523A6
:1026960011F00C944B1B0C94811B11240C943E1BC3
:1026A6000E94F71870F3959FC1F3950F50E0551FE0
:1026B600629FF001729FBB27F00DB11D639FAA2791
:1026C600F00DB11DAA1F649F6627B00DA11D661FE0
:1026D600829F2227B00DA11D621F739FB00DA11D01
:1026E600621F839FA00D611D221F749F3327A00DBB
:1026F600611D231F849F600D211D822F762F6A2F57
:1027060011249F5750409AF0F1F088234AF0EE0FBB
:10271600FF1FBB1F661F771F881F91505040A9F7E8
:102726009E3F510580F00C944B1B0C943E1B5F3F63
:10273600E4F3983ED4F3869577956795B795F79524
:10274600E7959F5FC1F7FE2B880F911D969587959C
:0427560097F9089552
:10275A0011C00E942F1B38F00E94361B20F039F45A
:10276A009F3F19F426F40C94811B0EF4E095E7FBC5
:10277A000C944B1BE92F0E94F71858F3BA176207FB
:10278A0073078407950720F079F4A6F50C943D1B8E
:10279A000EF4E0950B2EBA2FA02D0B01B901900172
:1027AA000C01CA01A0011124FF27591B99F0593FB6
:1027BA0050F4503E68F11A16F040A22F232F342FFE
:1027CA004427585FF3CF469537952795A795F0404C
:1027DA005395C9F77EF41F16BA0B620B730B840B61
:1027EA00BAF09150A1F0FF0FBB1F661F771F881F19
:1027FA00C2F70EC0BA0F621F731F841F48F4879571
:10280A0077956795B795F7959E3F08F0B0CF939562
:0E281A00880F08F09927EE0F9795879508957F
:102828004F925F926F927F92AF92BF92CF92DF9258
:10283800EF92FF920F931F93CF93DF93CDB7DEB73D
:1028480028970FB6F894DEBF0FBECDBF29013A0115
:10285800ED82FE820F8318870E94281B69837A8382
:102868008B839C83A6019501698D7A8D8B8D9C8DB8
:102878000E94281B9B01AC0169817A818B819C8114
:102888000E947A1B69837A838B839C83A3019201BC
:10289800C801B7010E94281B9B01AC0169817A819C
:1028A8008B819C810E94761B9B01AC01C601B501FE
:1028B8000E94291B28960FB6F894DEBF0FBECDBF25
:1028C800DF91CF911F910F91FF90EF90DF90CF9004
:0E28D800BF90AF907F906F905F904F900895EB
:1028E6000E94541A8EEA0E947B1A85ED0E947B1A7A
:1028F60080EF0E947B1A88EA0E947B1A8FE30E946F
:102906007B1A83ED0E947B1A80E00E947B1A8DE879
:102916000E947B1A84E10E947B1A80E40E947B1A43
:1029260080E20E947B1A80E00E947B1A81EA0E9464
:102936007B1A88EC0E947B1A8AED0E947B1A82E140
:102946000E947B1A81E80E947B1A8FEF0E947B1AF5
:1029560089ED0E947B1A81EF0E947B1A8BED0E9403
:102966007B1A80E20E947B1A84EA0E947B1A86EA1E
:102976000E947B1A8EE20E947B1A8FEA0E947B1AC3
:1029860060E080E00E94071BE0E0F1E086EA8283D7
:0C299600178216821582118210820895AB
:1029A200FA01AA27283051F1203181F1E8946F937E
:1029B2006E7F6E5F7F4F8F4F9F4FAF4FB1E03ED024
:1029C200B4E03CD0670F781F891F9A1FA11D680FC2
:1029D200791F8A1F911DA11D6A0F711D811D911DF5
:1029E200A11D20D009F468943F912AE0269F11246A
:1029F2003019305D3193DEF6CF010895462F4770CE
:102A0200405D4193B3E00FD0C9F7F6CF462F4F7028
:102A1200405D4A3318F0495D31FD4052419302D086
:102A2200A9F7EACFB4E0A69597958795779567952C
:102A3200BA95C9F700976105710508959B01AC012C
:102A42000A2E06945795479537952795BA95C9F753
:0C2A5200620F731F841F951FA01D0895C4
:102A5E001F920F920FB60F9211242F933F936F93E5
:102A6E007F938F939F93AF93BF93EF93FF93809139
:102A7E00810086FF09C08091860090918700909317
:102A8E0016058093150514C08091860090918700DD
:102A9E002091150530911605821B930B8295929508
:102AAE00907F9827807F9827909314058093130525
:102ABE00E1E8F0E0908180E489278083209113057E
:102ACE0030911405AFE9B6E40E94AD1A9295829545
:102ADE008F7089279F70892790932E0580932D05DF
:102AEE00FF91EF91BF91AF919F918F917F916F91D8
:0E2AFE003F912F910F900FBE0F901F901895D3
:102B0C00DF92EF92FF920F931F93CF93DF93882363
:102B1C000CF445C044230CF442C0603408F03FC0B0
:102B2C002034E8F5D02F122FD42EF62EE82E48178D
:102B3C0018F0042FC82F09C0082FC42F06C04D2F22
:102B4C006F2D8C2F0E946F17CF5F0C17C0F7DE1400
:102B5C0018F00D2DCE2D09C00E2DCD2D06C04D2FEC
:102B6C00612F8C2F0E946F17CF5F0C17C0F71F15AA
:102B7C0018F0212F6F2D02C02F2D612F0D2F4E2DF0
:102B8C008E2D0E9448101F1518F0212F6F2D02C09A
:102B9C002F2D612F0D2F4D2D8D2D0E944810DF9163
:0E2BAC00CF911F910F91FF90EF90DF90089551
:102BBA001F920F920FB60F9211248F939F938091B9
:102BCA003405813091F028F08230D9F0833029F130
:102BDA0032C0809178009091790090932805809373
:102BEA00270581E480937C0026C08091780090912B
:102BFA007900909324058093230582E480937C00D6
:102C0A001AC080917800909179009093260580935C
:102C1A00250583E480937C000EC080917800909112
:102C2A007900909322058093210580E480937C00AB
:102C3A008FEF80933405809134058F5F809334053C
:0E2C4A009F918F910F900FBE0F901F901895C5
:102C5800EF92FF921F93CF93DF9300D01F92CDB7CF
:102C6800DEB7182F19821A821B821F928F938FE268
:102C78009CE0A0E0AF939F938F93CE0101969F9322
:102C88008F930E94D4180FB6F894DEBF0FBECDBF45
:102C9800111105C062E37CE080E00E94211BE12C59
:102CA800F12C14C0E1E0F0E0EC0FFD1FEE0DFF1D6C
:102CB800808190E00E94211B8DEC189F112D11241A
:102CC8001695169516959FEFE91AF90A1111EACF8C
:102CD8000F900F900F90DF91CF911F91FF90EF9081
:022CE80008954D
:102CEA001F920F920FB60F9211242F933F934F9377
:102CFA005F936F937F938F939F93AF93BF93CF937A
:102D0A00EF93FF93C091C600C43689F463E37BE076
:102D1A0080E00E943E1A64E070E080E00E94101B8E
:102D2A000E942C1668E47BE080E00E943E1ACC36B2
:102D3A0051F46BE47BE080E00E940E1A60E084E0CC
:102D4A0090E00E94D81AFF91EF91CF91BF91AF9175
:102D5A009F918F917F916F915F914F913F912F91A9
:0A2D6A000F900FBE0F901F901895F8
:102D7400E89409C097FB3EF4909580957095619511
:102D84007F4F8F4F9F4F9923A9F0F92F96E9BB27C7
:102D94009395F695879577956795B795F111F8CF43
:102DA400FAF4BB0F11F460FF1BC06F5F7F4F8F4FAE
:102DB4009F4F16C0882311F096E911C0772321F0A4
:102DC4009EE8872F762F05C0662371F096E8862F3C
:102DD40070E060E02AF09A95660F771F881FDAF793
:0A2DE400880F9695879597F90895DA
:102DEE001F920F920FB60F9211242F933F934F9372
:102DFE005F936F937F938F939F93AF93BF93EF9355
:102E0E00FF934C990CC060913E05662341F06150D2
:102E1E0060933E0570E082E090E00E94651B89B1F0
:102E2E00881F8827881F8093390589B186FB8827DC
:102E3E0080F980933A05FF91EF91BF91AF919F91E9
:102E4E008F917F916F915F914F913F912F910F9045
:082E5E000FBE0F901F901895A4
:102E66000F931F93CF93DF93FB01248121FD03C0B2
:102E76008FEF9FEF2CC022FF16C04781508525811A
:102E860036814217530744F4A081B1819D012F5F1B
:102E96003F4F318320838C93278130852F5F3F4FAF
:102EA6003087278314C08B01EC01FB010184F28576
:102EB600E02D0995892BE1F6D80117968D919C9105
:102EC6001897019618969C938E931797CE01DF91CB
:082ED600CF911F910F910895A7
:102EDE00FF920F931F93CF93DF93C62F142F0E9451
:102EEE00071BE0E0F1E0F180D0816F2D8D2F0E9465
:102EFE00CA1A1F3F79F4C77001E010E020E030E0FD
:102F0E0004C0000F111F221F331FCA95D2F7482F7E
:102F1E00402B0FC0C77001E010E020E030E004C08D
:102F2E00000F111F221F331FCA95D2F70095402F95
:102F3E0048236F2D8D2F0E94BC1ADF91CF911F91C8
:062F4E000F91FF900895B1
:102F54000F931F93CF93DF93CDB7DEB72C970FB6A4
:102F6400F894DEBF0FBECDBF6115710581059105D3
:102F740021F480E30E94980D15C061157105810547
:102F840020E8920779F08E010F5F1F4F2CE0F801C3
:102F940011922A95E9F7A8010E94A90EB80180E8C8
:102FA4000E947D192C960FB6F894DEBF0FBECDBFDC
:0A2FB400DF91CF911F910F91089556
:102FBE000E94FF1888F09F5798F0B92F9927B751A4
:102FCE00B0F0E1F0660F771F881F991F1AF0BA95BF
:102FDE00C9F714C0B13091F00E943D1BB1E00895C5
:102FEE000C943D1B672F782F8827B85F39F0B93FB7
:102FFE00CCF3869577956795B395D9F73EF4909572
:0E300E008095709561957F4F8F4F9F4F08956D
:10301C001F920F920FB60F9211248F939F93AF9321
:10302C00BF938091090590910A05A0910B05B09171
:10303C000C050196A11DB11D8093090590930A05FD
:10304C00A0930B05B0930C05B695A795979587950E
:10305C0090931C0580931B05BF91AF919F918F910D
:0A306C000F900FBE0F901F901895F3
:103076001F920F920FB60F9211242F933F934F93E7
:103086005F936F937F938F939F93AF93BF93EF93CA
:10309600FF9360913E056F5F60933E0570E082E0AE
:1030A60090E00E94651BFF91EF91BF91AF919F91B8
:1030B6008F917F916F915F914F913F912F910F90DB
:0830C6000FBE0F901F9018953A
:1030CE0095B115B891E29A95F1F70000882379F041
:1030DE0085B1846085B981E28A95F1F7000085B1EA
:1030EE00866085B991E29A95F1F7000007C085B127
:1030FE00826085B981E28A95F1F7000085B115B835
:0A310E0091E29A95F1F70000089590
:10311800CF9381E20E947B1A80E00E947B1A8FE79E
:103128000E947B1A82E20E947B1A80E00E947B1A2E
:1031380087E00E947B1AC0E00BC080E1C89FB00105
:103148001124675F7E4F40E180E40E943B19CF5F06
:08315800C03498F3CF910895F3
:10316000990F0008550FAA0BE0E8FEEF1616170698
:10317000E807F907C0F012161306E407F50798F000
:10318000621B730B840B950B39F40A2661F0232B19
:10319000242B252B21F408950A2609F4A140A69595
:0831A0008FEF811D811D0895D0
:1031A800AFE0B0E0EAEDF8E10C94CA190E891F8986
:1031B80086E08D831A8309838FEF9FE79F838E8331
:1031C8009E01255E3F4F488D598D6A8DCE0101962F
:1031D8000E947208E885F985E00FF11F10822F968A
:0631E800E4E00C94011A62
:1031EE0057FD9058440F551F59F05F3F71F04795AA
:1031FE00880F97FB991F61F09F3F79F0879508958F
:10320E00121613061406551FF2CF4695F1DF08C0AD
:10321E00161617061806991FF1CF869571056105CA
:04322E000894089563
:10323200A1E21A2EAA1BBB1BFD010DC0AA1FBB1FB8
:10324200EE1FFF1FA217B307E407F50720F0A21B2A
:10325200B30BE40BF50B661F771F881F991F1A9497
:1032620069F760957095809590959B01AC01BD01C1
:04327200CF010895EB
:103276000F931F93CF93DF93C82F8B01D42F0E94F8
:10328600FD1A88E70E94E61A8C2F0E94E61AC0E013
:1032960007C0F801EC0FF11D80810E94E61ACF5F8E
:1032A600CD17B8F30E94191BDF91CF911F910F9193
:0232B600089579
:1032B8000F934423E4F02034D0F40230C0F4E0E06B
:1032C800F1E0748363834583268330E0215031091C
:1032D800C90199230CF40796959587959595879537
:1032E80095958795E0E0F1E08F5F878300870F91E0
:0232F800089537
:1032FA00CF92DF92EF926B01E82E10C0E0E0F1E08E
:10330A009081258130E0290F311D2038310564F480
:10331A009FEFC91AD90AE90A0E94980DF601849109
:10332A00E7FC80818111EACFEF90DF90CF9008957A
:10333A009C01990F440B550B60E472E48FE090E016
:10334A000E941919DA01C9010197A109B109892F46
:10335A009A2FAB2FBB278093C50021502093C4001E
:0E336A0088E98093C10086E08093C200089538
:103378002F923F924F925F926F927F928F929F927D
:10338800AF92BF92CF92DF92EF92FF920F931F936B
:10339800CF93DF93CDB7DEB7CA1BDB0B0FB6F8941C
:0833A800DEBF0FBECDBF09948A
:1033B000CF92DF92EF926B01E82EA82FCB0141153F
:1033C000510531F48C199D09EF90DF90CF9008954D
:1033D000FC012491A7FD20812223A1F30196A11DC8
:0633E00041505109ECCF41
:1033E6002A88398848885F846E847D848C849B848F
:1033F600AA84B984C884DF80EE80FD800C811B819D
:10340600AA81B981CE0FD11D0FB6F894DEBF0FBECB
:06341600CDBFED01089599
:10341C00CF92DF92EF926B01E82E06C09FEFC91A94
:10342C00D90AE90A0E94211BF6018491E7FC8081EC
:10343C008111F4CF8AE00E94211BEF90DF90CF9096
:02344C000895E1
:10344E001F93CF93DF93182FD0E00BC0412F6D2F1A
:10345E008C2F0E94BC1ACF5F01C0C0E0CC23B4F702
:0E346E00D85FD034D0F3DF91CF911F91089535
:10347C00CF92DF92EF926B01E82E06C09FEFC91A34
:10348C00D90AE90A0E94211BF6018491E7FC80818C
:0C349C008111F4CFEF90DF90CF900895E5
:1034A80087B1806187B987B1806287B988B1806147
:1034B80088B988B1806288B91092B90088E480938D
:0A34C800B80084E08093BC00089572
:1034D200BA01A901DC01CB01FC01F999FECF06C0BA
:1034E200F2BDE1BDF89A319600B40D9241505040C0
:0434F200B8F708958A
:1034F600CF93DF931F92CDB7DEB7898341E0BE013C
:103506006F5F7F4F80E00E943B190F90DF91CF9154
:02351600089516
:10351800092E0394000C11F4882352F0BB0F40F4D9
:10352800BF2B11F460FF04C06F5F7F4F8F4F9F4F19
:023538000895F4
:10353A0080910201873A21F486EA8093020103C04E
:10354A0087EA80930201809102010E947B1A089502
:10355A00A29FB001B39FC001A39F700D811D1124CA
:0E356A00911DB29F700D811D1124911D0895B9
:10357800669566956695E82FF0E080E8689FE00D0F
:0C358800F11D1124E75FFE4F4083089501
:10359400669566956695E82FF0E080E8689FE00DF3
:0C35A400F11D1124E75FFE4F80810895A7
:1035B000262FF999FECF1FBA92BD81BD20BD0FB64F
:0C35C000F894FA9AF99A0FBE019608954B
:1035CC008093BB0084E88093BC008091BC0088236E
:0835DC00E4F70E94721B089540
:1035E4000E94AD1AA59F900DB49F900DA49F800DCD
:0635F400911D1124089551
:1035FA0084EA8093BC008091BC008823E4F70E948F
:04360A00721B089592
:10360E00CF93C62F0E94511B8C2F0E94561BCF9119
:02361E0008950D
:10362000CB01F999FECF92BD81BDF89A992780B55B
:023630000895FB
:1036320085ED8093BC008091BC0084FDFCCF089591
:0E3642009091C00095FFFCCF8093C6000895C4
:0E3650005058BB27AA270E94AD130C948C1A69
:0E365E0000240A941616170618060906089589
:0E366C0000240A94121613061406050608958B
:0E367A00E894BB2766277727CB0197F90895C0
:0E368800CB01A8E1B0E042E050E00C946D1AD6
:0C36960097F99F6780E870E060E00895FD
:0A36A200882314F0809300010895BE
:0A36AC00803410F4809301010895AA
:0A36B6000F930E9448100F91089531
:0A36C0000E94B01808F481E008959C
:0A36CA000E94D81A272F0C94D91A79
:0836D40084B1866084B90895F9
:0836DC0080E00E94271A089506
:0836E4008091B900887F089570
:0836EC000E94D4120C948C1A08
:0836F4000E9443130C948C1A90
:0636FC0080910001089519
:063702009FEF80EC08952A
:043708000C9400001D
:00000001FF
